:020000000F28C7
:10000800DE00030E8312AB000408AC000A08AD0042
:100018005F08AE003E2A8316FF239000831214283F
:10002800B122C7008313383084004630A9228301E7
:100038001D28B2226B228312BC01BD01C401C30179
:100048002330B0003008C6008B13C512C510451602
:10005800451045088500C7018F228312C001B501EC
:10006800B301BA01BB01B801B9018312051D3E28CD
:1000780001303F28FF30B0003008C307BE01BF0180
:10008800B5014308803A7E3E031C5E280730B00065
:100098003008C400BC01BD010230B0003008C30004
:1000A8004208031D6F28C201C20AC701C70AC0015E
:1000B800C5126E2883124308803A813E03186F28C0
:1000C800FE30B0003008C3004203031D6F28C20190
:1000D800C101C7018F2283124208031D72294708F4
:1000E800031DB3284008031D9B28640000308312B9
:1000F800C51A0130B40083168516951683288428FE
:1001080000008312851A91280830B000B00B8A28A5
:100118008312851A9128C001C00A8316851283129A
:1001280034080139C512031DC51645088500400865
:100138000319AC280730B0003008C400BC01BD0169
:10014800C514C51645088500C701C70A8F22B328FC
:1001580083123C083D040319B328B301B30A831280
:10016800B2014708031DBD284008031DBD28B20180
:10017800B20A3208B0003008B50033080319242940
:10018800B301C51645088500C51C1529FF30B00008
:100198003008C6074608803A7F3E03180A292330EC
:1001A800B0003008C6003D08B7003C08B600370864
:1001B800803ADF0080305F02031DE4284E303602AB
:1001C800031C1F29640083124514450885000A3062
:1001D800B1001530B000B00BEF28B10BEF28F428B0
:1001E8008312451045088500EA30B100C330B000DD
:1001F800B00BFC28B10BFC2883123608B23EB600BF
:1002080037080318013EFF3EB700DB28143083127D
:10021800B1007930B000B00B0F29B10B0F291429A8
:100228001F2914308312B1007930B000B00B1A299D
:10023800B10B1A291F2964008312C51245088500CD
:10024800350803194B290030C51A0130B400C5160A
:10025800450885000330B000B00B30298B17831296
:10026800C512450885006400B9308312B1006930B1
:10027800B000B00B3D29B10B3D298B138312340814
:100288000139C512031DC516450885004F290230DE
:10029800BE000030BF0000303F02023003193E02AA
:1002A800031C6B2900303F023D3003193E02031C3A
:1002B800642900303F025C3003193E02031C6B299D
:1002C8000130B0003008C407BC01BD0172290130FB
:1002D800BC070318BD0A0030BD07C401073044023B
:1002E800031C7E294108031D7E29C514C401B801D9
:1002F800B9018229073044020318C40101303D02C4
:100308003B3003193C02031C8E29C510BC01BD01FA
:10031800BA01BB0162303B02703003193A02031C78
:100328009F29C510A430B8000130B9007030BA0058
:100338006230BB00AD2918303B029C3003193A02E9
:10034800031CAF294308803A7E3E031CAF29C51021
:10035800C512C101C10AC51CB8290130BA07031862
:10036800BB0A0030BB07D029BA01BB010130B8076E
:100378000318B90A0030B90701303902A43003194B
:100388003802031CD029A430B8000130B900C701D5
:10039800C70AC512C0018F22831245088500350897
:1003A800031D392883160108F839033881006300D2
:1003B800000083160108F8390538810064003928DF
:1003C8008312A601A11FEF29A009A109A00A0319F8
:1003D800A10AA601A60AA31FFA29A209A309A20A2B
:1003E8000319A30A0130A4002408A606A701A8013E
:1003F800200821040319312AA501A50AA11B102AE6
:1004080001300310A00DA10DFF3E031D052A013088
:10041800A4002408A507022A01300310A70DA80D7F
:10042800FF3E031D112A21082302031D1D2A20084F
:100438002202031C262A2008A2022108031CA30367
:10044800A302271401300310A10CA00CFF3E031DCA
:10045800272A0130A502031D102A26080319392A64
:10046800A709A809A70A0319A80A2808A1002708A4
:10047800A00008000B1C5F2A8B11851D442A8F01E0
:100488008E01101485195E2A10103A30A000003031
:10049800A1000F08A900AA012908AA00A901290892
:1004A8000E04A2002A08A300E42183122108BF0039
:1004B8002008BE000B108B152E08DF002D088A00BF
:1004C8002C0884002B0E8300DE0E5E0E09008316B6
:1004D8009F0183129F0107309900831699018512A5
:1004E800851505158510051205109501151581133B
:1004F800831210139010CF309005901110108316AE
:1005080081150108F839053881000B10083096006C
:100518008B158B1308008312450E0139AF0047086D
:10052800031D982A0130992A00302F06031D080060
:10053800470801394512031D451645088500063050
:10054800AF00AF0BA52A0000080064008001840AF0
:0E0558000406031900340406AA2A0134080020
:02400E00CC31B3
:00000001FF
