:020000000B28CB
:10000800DE00030E8312A0000A08A100042983164B
:10001800FF2390008312FB280B21EC20AF01B001D5
:10002800B101B20183128F018E01B3163308850026
:100038000330AA00AA0B1E288312B31233088500C6
:10004800051D242810140519272810100E08AD00C6
:10005800AE010F08AA00AB01AB00AA012A08AD0443
:100068002B08AE043A30A200A3012E08A5002D08E3
:10007800A400A7202308AE002208AD00AD0A03198A
:10008800AE0A2E08803ADF0080305F02031D4E283A
:1000980002302D028312031C75282E08803ADF00D7
:1000A80081305F02031D5A2891302D0283120318F4
:1000B80075282E08803ADF0080305F02031D66280D
:1000C80010302D02831203186F28B10A0319B20ADF
:1000D800AF01B0017428AF0A0319B00AB101B20127
:1000E80083123208803ADF0080305F02031D7E28C9
:1000F800053031028312031C8728B31433088500A6
:10010800B101B20183123008803ADF0080305F020B
:10011800031D902807302F02031C98288312B31060
:1001280033088500AF01B00102308312AC004530BE
:10013800AB00A930AA00AA0B9F28AB0B9F28AC0BD9
:100148009F28A6281628A701A31FB128A209A3093A
:10015800A20A0319A30AA701A70AA51FBA28A40976
:10016800A509A40A0319A50A0130A706A801A9012F
:10017800230822040319DF28A601A60AA31BC828FE
:100188000310A20DA30DC1280310A80DA90D230863
:100198002502031DD12822082402031CDB2822087B
:1001A800A4022308031CA503A50228140310A30C0A
:1001B800A20CA60BC82827080319E728A809A9092B
:1001C800A80A0319A90A2908A3002808A2000800F8
:1001D80083169F01851205150516851083121013C5
:1001E8009010CF30900590111010B3120800AD0197
:1001F800AE01AF01B001B101B201B3018301102812
:1002080021088A00200E8300DE0E5E0E0900080019
:02400E009431EB
:00000001FF
