:020000000F28C7
:10000800DE00030E8312AB000408AC000A08AD0042
:100018005F08AE004A2A8316FF2390008312142833
:10002800BD22C6008313373084004530B5228301D2
:100038001D28BE2277228312BB01BC01C301C20165
:100048002330B0003008C5008B13C412C410441606
:10005800441044088500C6019B22FC308312B60573
:100068003611B611B6123613B6133612B901BA01E3
:10007800B701B801640083123611B613BD01BE0181
:10008800051D5C280130B0003008C2074208803ADC
:100098007E3E031C72280230B0003008C2003608C9
:1000A8000339023A031936153608FC390138712824
:1000B800FF30B0003008C2074208803A813E03187A
:1000C8007228FE30B0003008C20036080339013A01
:1000D800031936153608FC390238B600361D832850
:1000E800B901BA01B701B801B61136124410C412E9
:1000F80036080339023A031D8328C6019B2283125E
:1001080036080339013A031D8D28C414C601C60AEE
:100118009B22831236080339023A031DCB2846086E
:10012800031DCB28361AB828640000308312C41A7D
:100138000130B300831685169516A228A32800005F
:100148008312851AAE280830B000B00BA928831294
:10015800851E361683168512831233080139C41298
:10016800031DC41644088500361EC6280730B00093
:100178003008C300BB01BC01C414C416C601C60ABA
:100188009B22CB2883123B083C04031DB61683121E
:10019800B61E2E29B612C41644088500C41C1F2991
:1001A800FF30B0003008C5074508803A7F3E031885
:1001B80014292330B0003008C5003C08B5003B08BE
:1001C800B4003508803ADF0080305F02031DEE2856
:1001D80023303402031C2929640083124414440880
:1001E80085000A30B1001530B000B00BF928B10B0A
:1001F800F928FE288312441044088500EA30B1002B
:10020800C330B000B00B0629B10B0629831234089D
:10021800DD3EB40035080318013EFF3EB500E52871
:1002280014308312B1007930B000B00B1929B10B2A
:1002380019291E29292914308312B1007930B000F8
:10024800B00B2429B10B2429292964008312C41274
:1002580044088500B20146080319361A3529B20147
:10026800B20A320801393613031D3617361F6329BF
:100278000030C41A0130B300C416440885000330A6
:10028800B000B00B45298B158B178312C412440894
:1002980085006400B9308312B1006930B000B00B3A
:1002A8005329B10B53298B138B118312B6173308BB
:1002B8000139C412031DC416440885006729043097
:1002C800BD000030BE0000303E02043003193D027C
:1002D800031C832900303E02383003193D02031CF9
:1002E8007C2900303E025C3003193D02031C83293F
:1002F8000130B0003008C307BB01BC018A290130B6
:10030800BB070318BC0A0030BC07C301073043020F
:10031800031C93290730B0003008C300C414003010
:100328003C028C3003193B02031C9F298C30BB0014
:100338000030BC00C410C41CAA290130B907031836
:10034800BA0A0030BA07B701B801B229B901BA012F
:100358000130B7070318B80A0030B80762303A020C
:10036800703003193902031CBE297030B90062309D
:10037800BA00B61501303802A43003193702031C3D
:10038800CA29A430B7000130B800B61536080339B9
:10039800013A031DD62918303A029C300319390254
:1003A8000318B615B61DDD29C410C412C601C60A45
:1003B8009B22831244088500B61B3E2864008316DE
:1003C8000108F8390338810063000000831601082A
:1003D800F839053881003E288312A601A11FFB29A0
:1003E800A009A109A00A0319A10AA601A60AA31F28
:1003F800062AA209A309A20A0319A30A0130A40024
:100408002408A606A701A8012008210403193D2AEB
:10041800A501A50AA11B1C2A01300310A00DA10DDE
:10042800FF3E031D112A0130A4002408A5070E2A47
:1004380001300310A70DA80DFF3E031D1D2A21083A
:100448002302031D292A20082202031C322A20081D
:10045800A2022108031CA303A302271401300310DE
:10046800A10CA00CFF3E031D332A0130A502031D79
:100478001C2A26080319452AA709A809A70A031947
:10048800A80A2808A1002708A00008000B1C6B2A4E
:100498008B11851D502A8F018E01101485196A2A27
:1004A80010103A30A0000030A1000F08A900AA01DE
:1004B8002908AA00A90129080E04A2002A08A300F5
:1004C800F02183122108BE002008BD000B108B15F7
:1004D8002E08DF002D088A002C0884002B0E8300CC
:1004E800DE0E5E0E090083169F0183129F010730FE
:1004F8009900831699018512851505158510051231
:100508000510950115158113831210139010CF3023
:10051800900590111010831681150108F8390538D7
:1005280081000B10083096008B158B13080083127E
:10053800440E0139AF004608031DA42A0130A52A3C
:1005480000302F06031D0800460801394412031D18
:100558004416440885000630AF00AF0BB12A0000EE
:10056800080064008001840A0406031900340406A4
:06057800B62A0134080060
:02400E00CC31B3
:00000001FF
